{
  "address": "0x8415ef553CaeC82fa646eD1d1f8E22A2FE026058",
  "abi": [
    {
      "inputs": [],
      "name": "Pausable__NotPaused",
      "type": "error"
    },
    {
      "inputs": [],
      "name": "Pausable__Paused",
      "type": "error"
    },
    {
      "anonymous": false,
      "inputs": [
        {
          "indexed": false,
          "internalType": "address",
          "name": "account",
          "type": "address"
        }
      ],
      "name": "Paused",
      "type": "event"
    },
    {
      "anonymous": false,
      "inputs": [
        {
          "indexed": false,
          "internalType": "address",
          "name": "account",
          "type": "address"
        }
      ],
      "name": "Unpaused",
      "type": "event"
    },
    {
      "inputs": [],
      "name": "pause",
      "outputs": [],
      "stateMutability": "nonpayable",
      "type": "function"
    },
    {
      "inputs": [],
      "name": "paused",
      "outputs": [
        {
          "internalType": "bool",
          "name": "status",
          "type": "bool"
        }
      ],
      "stateMutability": "view",
      "type": "function"
    },
    {
      "inputs": [],
      "name": "unpause",
      "outputs": [],
      "stateMutability": "nonpayable",
      "type": "function"
    }
  ],
  "transactionHash": "0xde672141f2968bcc8e6a8147d33ffbd901b094b82353d322fa8461dfc21d43d3",
  "args": [],
  "numDeployments": 1,
  "solcInputHash": "01a6643178f9a915bf0c9a2bac41d78c",
  "bytecode": "0x6080806040523460155761026e908161001b8239f35b600080fdfe6080604052600436101561001257600080fd5b60003560e01c80633f4ba83a146101245780635c975abb146100f457638456cb591461003d57600080fd5b346100ef5760003660031901126100ef5761008260018060a01b037fc8fcad8db84d3cc18b4c41d551ea0ee66dd599cde068d998e57d5e09332c1320541633146101d3565b6000805160206102198339815191525460ff81166100de5760019060ff191617600080516020610219833981519152557f62e78cea01bee320cd4e420270b5ea74000d11b0c9f74754ebdbfc544b05a2586020604051338152a1005b6302ca8ced60e11b60005260046000fd5b600080fd5b346100ef5760003660031901126100ef57602060ff60008051602061021983398151915254166040519015158152f35b346100ef5760003660031901126100ef5761016960018060a01b037fc8fcad8db84d3cc18b4c41d551ea0ee66dd599cde068d998e57d5e09332c1320541633146101d3565b6000805160206102198339815191525460ff8116156101c25760ff1916600080516020610219833981519152557f5db9ee0a495bf2e6ff9c91a7834c1ba4fdd244a5e8aa4e537bd38aeae4b073aa6020604051338152a1005b632ca4452d60e11b60005260046000fd5b156101da57565b60405162461bcd60e51b815260206004820152601660248201527526bab9ba1031329031b7b73a3930b1ba1037bbb732b960511b6044820152606490fdfe68721c0bbf2c02a4d65000340d1370666be06a630022208d4baa9bd7a4b6fea8a2646970667358221220f097a7c93cfd8bf708e5f696a08b8a1327d64877782d6f1cad7d10e7c3de1e0a64736f6c634300081a0033",
  "devdoc": {
    "author": "codewarriorr@pm.me",
    "kind": "dev",
    "methods": {
      "paused()": {
        "returns": {
          "status": "whether contract is paused"
        }
      }
    },
    "title": "AdminFacet",
    "version": 1
  },
  "userdoc": {
    "kind": "user",
    "methods": {
      "pause()": {
        "notice": "Pause the contract and prevent critical functions from being called"
      },
      "paused()": {
        "notice": "query whether contract is paused"
      },
      "unpause()": {
        "notice": "Unpause the contract"
      }
    },
    "notice": "Admin contract management functions",
    "version": 1
  },
  "storageLayout": {
    "storage": [],
    "types": null
  }
}