{
  "address": "0xa59591Cf3d2b0Ea8e8a090b27cFe159bb8E995df",
  "abi": [
    {
      "inputs": [],
      "name": "EthAmountIsZero",
      "type": "error"
    },
    {
      "inputs": [],
      "name": "TokenPoolIsMissing",
      "type": "error"
    },
    {
      "anonymous": false,
      "inputs": [
        {
          "indexed": true,
          "internalType": "address",
          "name": "wallet",
          "type": "address"
        },
        {
          "indexed": true,
          "internalType": "address",
          "name": "token",
          "type": "address"
        },
        {
          "indexed": false,
          "internalType": "uint256",
          "name": "amount",
          "type": "uint256"
        }
      ],
      "name": "Swapped",
      "type": "event"
    },
    {
      "inputs": [],
      "name": "WETH",
      "outputs": [
        {
          "internalType": "address",
          "name": "",
          "type": "address"
        }
      ],
      "stateMutability": "view",
      "type": "function"
    },
    {
      "inputs": [
        {
          "internalType": "address",
          "name": "token",
          "type": "address"
        },
        {
          "internalType": "uint256",
          "name": "minAmount",
          "type": "uint256"
        }
      ],
      "name": "swapEtherToToken",
      "outputs": [
        {
          "internalType": "uint256",
          "name": "",
          "type": "uint256"
        }
      ],
      "stateMutability": "payable",
      "type": "function"
    },
    {
      "inputs": [],
      "name": "uniswapFactory",
      "outputs": [
        {
          "internalType": "contract IUniswapV3Factory",
          "name": "",
          "type": "address"
        }
      ],
      "stateMutability": "view",
      "type": "function"
    },
    {
      "inputs": [],
      "name": "universalRouter",
      "outputs": [
        {
          "internalType": "contract IUniversalRouter",
          "name": "",
          "type": "address"
        }
      ],
      "stateMutability": "view",
      "type": "function"
    }
  ],
  "transactionHash": "0x789026558b5fe4ed9848ccbe72930320d8131afacb8c6cb97dab4d8f13ebf65c",
  "args": [],
  "numDeployments": 1,
  "solcInputHash": "233bb78c5ef5e46d4951c65ee1d8c86e",
  "bytecode": "0x608060405234801561001057600080fd5b50610ed0806100206000396000f3fe60806040526004361061003f5760003560e01c806335a9e4df146100445780637a2a04561461006f5780638bdb2afa1461009f578063ad5c4648146100ca575b600080fd5b34801561005057600080fd5b506100596100f5565b60405161006691906107d5565b60405180910390f35b61008960048036038101906100849190610869565b61010d565b60405161009691906108b8565b60405180910390f35b3480156100ab57600080fd5b506100b4610726565b6040516100c191906108f4565b60405180910390f35b3480156100d657600080fd5b506100df61073e565b6040516100ec919061091e565b60405180910390f35b733fc91a3afd70395cd496c647d5a6cc9d4b2b7fad81565b6000803403610148576040517fc8e5033400000000000000000000000000000000000000000000000000000000815260040160405180910390fd5b6000600f426101579190610968565b90506000610bb890506000730227628f3f023bb0b980b67d528571c95c6dac1c73ffffffffffffffffffffffffffffffffffffffff16631698ee8273fff9976782d46cc05630d1f6ebab18b2324d6b1488856040518463ffffffff1660e01b81526004016101c7939291906109ba565b602060405180830381865afa1580156101e4573d6000803e3d6000fd5b505050506040513d601f19601f820116820180604052508101906102089190610a06565b9050600073ffffffffffffffffffffffffffffffffffffffff168173ffffffffffffffffffffffffffffffffffffffff1603610270576040517f58b2257c00000000000000000000000000000000000000000000000000000000815260040160405180910390fd5b60008673ffffffffffffffffffffffffffffffffffffffff166370a08231336040518263ffffffff1660e01b81526004016102ab919061091e565b602060405180830381865afa1580156102c8573d6000803e3d6000fd5b505050506040513d601f19601f820116820180604052508101906102ec9190610a48565b905073fff9976782d46cc05630d1f6ebab18b2324d6b1473ffffffffffffffffffffffffffffffffffffffff1663095ea7b3733fc91a3afd70395cd496c647d5a6cc9d4b2b7fad346040518363ffffffff1660e01b8152600401610351929190610a75565b6020604051808303816000875af1158015610370573d6000803e3d6000fd5b505050506040513d601f19601f820116820180604052508101906103949190610ad6565b506000600267ffffffffffffffff8111156103b2576103b1610b03565b5b6040519080825280601f01601f1916602001820160405280156103e45781602001600182028036833780820191505090505b509050600b60f81b81600081518110610400576103ff610b32565b5b60200101907effffffffffffffffffffffffffffffffffffffffffffffffffffffffffffff1916908160001a905350600060f81b8160018151811061044857610447610b32565b5b60200101907effffffffffffffffffffffffffffffffffffffffffffffffffffffffffffff1916908160001a9053506000600267ffffffffffffffff81111561049457610493610b03565b5b6040519080825280602002602001820160405280156104c757816020015b60608152602001906001900390816104b25790505b509050733fc91a3afd70395cd496c647d5a6cc9d4b2b7fad346040516020016104f1929190610a75565b6040516020818303038152906040528160008151811061051457610513610b32565b5b602002602001018190525033348973fff9976782d46cc05630d1f6ebab18b2324d6b14888d60405160200161054b93929190610bdf565b6040516020818303038152906040526000604051602001610570959493929190610cbb565b6040516020818303038152906040528160018151811061059357610592610b32565b5b6020026020010181905250733fc91a3afd70395cd496c647d5a6cc9d4b2b7fad73ffffffffffffffffffffffffffffffffffffffff16633593564c3484848a6040518563ffffffff1660e01b81526004016105f093929190610e21565b6000604051808303818588803b15801561060957600080fd5b505af115801561061d573d6000803e3d6000fd5b505050505060008973ffffffffffffffffffffffffffffffffffffffff166370a08231336040518263ffffffff1660e01b815260040161065d919061091e565b602060405180830381865afa15801561067a573d6000803e3d6000fd5b505050506040513d601f19601f8201168201806040525081019061069e9190610a48565b9050600084826106ae9190610e66565b90508a73ffffffffffffffffffffffffffffffffffffffff163373ffffffffffffffffffffffffffffffffffffffff167f2e7f8a64aa3240292c0adfa332e1e8945dd31589fcb0bce2721fa21c69b1390f8360405161070d91906108b8565b60405180910390a3809850505050505050505092915050565b730227628f3f023bb0b980b67d528571c95c6dac1c81565b73fff9976782d46cc05630d1f6ebab18b2324d6b1481565b600073ffffffffffffffffffffffffffffffffffffffff82169050919050565b6000819050919050565b600061079b61079661079184610756565b610776565b610756565b9050919050565b60006107ad82610780565b9050919050565b60006107bf826107a2565b9050919050565b6107cf816107b4565b82525050565b60006020820190506107ea60008301846107c6565b92915050565b600080fd5b600061080082610756565b9050919050565b610810816107f5565b811461081b57600080fd5b50565b60008135905061082d81610807565b92915050565b6000819050919050565b61084681610833565b811461085157600080fd5b50565b6000813590506108638161083d565b92915050565b600080604083850312156108805761087f6107f0565b5b600061088e8582860161081e565b925050602061089f85828601610854565b9150509250929050565b6108b281610833565b82525050565b60006020820190506108cd60008301846108a9565b92915050565b60006108de826107a2565b9050919050565b6108ee816108d3565b82525050565b600060208201905061090960008301846108e5565b92915050565b610918816107f5565b82525050565b6000602082019050610933600083018461090f565b92915050565b7f4e487b7100000000000000000000000000000000000000000000000000000000600052601160045260246000fd5b600061097382610833565b915061097e83610833565b925082820190508082111561099657610995610939565b5b92915050565b600062ffffff82169050919050565b6109b48161099c565b82525050565b60006060820190506109cf600083018661090f565b6109dc602083018561090f565b6109e960408301846109ab565b949350505050565b600081519050610a0081610807565b92915050565b600060208284031215610a1c57610a1b6107f0565b5b6000610a2a848285016109f1565b91505092915050565b600081519050610a428161083d565b92915050565b600060208284031215610a5e57610a5d6107f0565b5b6000610a6c84828501610a33565b91505092915050565b6000604082019050610a8a600083018561090f565b610a9760208301846108a9565b9392505050565b60008115159050919050565b610ab381610a9e565b8114610abe57600080fd5b50565b600081519050610ad081610aaa565b92915050565b600060208284031215610aec57610aeb6107f0565b5b6000610afa84828501610ac1565b91505092915050565b7f4e487b7100000000000000000000000000000000000000000000000000000000600052604160045260246000fd5b7f4e487b7100000000000000000000000000000000000000000000000000000000600052603260045260246000fd5b60008160601b9050919050565b6000610b7982610b61565b9050919050565b6000610b8b82610b6e565b9050919050565b610ba3610b9e826107f5565b610b80565b82525050565b60008160e81b9050919050565b6000610bc182610ba9565b9050919050565b610bd9610bd48261099c565b610bb6565b82525050565b6000610beb8286610b92565b601482019150610bfb8285610bc8565b600382019150610c0b8284610b92565b601482019150819050949350505050565b600081519050919050565b600082825260208201905092915050565b60005b83811015610c56578082015181840152602081019050610c3b565b60008484015250505050565b6000601f19601f8301169050919050565b6000610c7e82610c1c565b610c888185610c27565b9350610c98818560208601610c38565b610ca181610c62565b840191505092915050565b610cb581610a9e565b82525050565b600060a082019050610cd0600083018861090f565b610cdd60208301876108a9565b610cea60408301866108a9565b8181036060830152610cfc8185610c73565b9050610d0b6080830184610cac565b9695505050505050565b600081519050919050565b600082825260208201905092915050565b6000819050602082019050919050565b600082825260208201905092915050565b6000610d5d82610c1c565b610d678185610d41565b9350610d77818560208601610c38565b610d8081610c62565b840191505092915050565b6000610d978383610d52565b905092915050565b6000602082019050919050565b6000610db782610d15565b610dc18185610d20565b935083602082028501610dd385610d31565b8060005b85811015610e0f5784840389528151610df08582610d8b565b9450610dfb83610d9f565b925060208a01995050600181019050610dd7565b50829750879550505050505092915050565b60006060820190508181036000830152610e3b8186610c73565b90508181036020830152610e4f8185610dac565b9050610e5e60408301846108a9565b949350505050565b6000610e7182610833565b9150610e7c83610833565b9250828203905081811115610e9457610e93610939565b5b9291505056fea26469706673582212200ff1b8c8e5579b8b8bfbd4851099561eeec1ef62a9da67805e1d2ae1f9bb4d5364736f6c63430008180033",
  "devdoc": {
    "author": "codewarriorr@pm.me",
    "kind": "dev",
    "methods": {
      "swapEtherToToken(address,uint256)": {
        "details": "swaps the `msg.value` Ether to at least `minAmount` of tokens in `address`, or reverts",
        "params": {
          "minAmount": "The minimum amount of tokens transferred to msg.sender",
          "token": "The address of ERC-20 token to swap"
        },
        "returns": {
          "_0": "The actual amount of transferred tokens"
        }
      }
    },
    "title": "Swapper",
    "version": 1
  },
  "userdoc": {
    "kind": "user",
    "methods": {},
    "notice": "Simple contract to swap Ether to ERC-20 tokens using Uniswap V3 through Universal Router",
    "version": 1
  },
  "storageLayout": {
    "storage": [],
    "types": null
  }
}