{
  "address": "0x58D42d3781e5E2c0fbd9e200170406bf7391cC09",
  "abi": [
    {
      "inputs": [],
      "name": "ContractIsPaused",
      "type": "error"
    },
    {
      "inputs": [],
      "name": "EthAmountIsZero",
      "type": "error"
    },
    {
      "inputs": [],
      "name": "ReentrancyGuard__ReentrantCall",
      "type": "error"
    },
    {
      "inputs": [],
      "name": "TokenPoolIsMissing",
      "type": "error"
    },
    {
      "anonymous": false,
      "inputs": [
        {
          "indexed": true,
          "internalType": "address",
          "name": "wallet",
          "type": "address"
        },
        {
          "indexed": true,
          "internalType": "address",
          "name": "token",
          "type": "address"
        },
        {
          "indexed": false,
          "internalType": "uint256",
          "name": "amount",
          "type": "uint256"
        }
      ],
      "name": "Swapped",
      "type": "event"
    },
    {
      "inputs": [
        {
          "internalType": "address",
          "name": "token",
          "type": "address"
        }
      ],
      "name": "checkPool",
      "outputs": [
        {
          "internalType": "address",
          "name": "",
          "type": "address"
        }
      ],
      "stateMutability": "view",
      "type": "function"
    },
    {
      "inputs": [
        {
          "internalType": "address",
          "name": "token",
          "type": "address"
        },
        {
          "internalType": "uint256",
          "name": "minAmount",
          "type": "uint256"
        }
      ],
      "name": "swapEtherToToken",
      "outputs": [
        {
          "internalType": "uint256",
          "name": "",
          "type": "uint256"
        }
      ],
      "stateMutability": "payable",
      "type": "function"
    }
  ],
  "transactionHash": "0x688b48196099ce3408314960021e38d663af2b35779707237de44a73b261bf8f",
  "args": [],
  "numDeployments": 1,
  "solcInputHash": "01a6643178f9a915bf0c9a2bac41d78c",
  "bytecode": "0x608080604052346015576107c4908161001b8239f35b600080fdfe608080604052600436101561001357600080fd5b600090813560e01c90816330b9d2a7146105ec5750637a2a04561461003757600080fd5b60403660031901126105e95761004b6106ad565b60ff7f68721c0bbf2c02a4d65000340d1370666be06a630022208d4baa9bd7a4b6fea854166105da5760027f09acf4e54214992e70883cf7dcd6957ff2c71cd9e14df4bec4383bc0d11607dc54146105cb5760027f09acf4e54214992e70883cf7dcd6957ff2c71cd9e14df4bec4383bc0d11607dc5534156105bc57600f420180421161044557604051630b4c774160e11b815273fff9976782d46cc05630d1f6ebab18b2324d6b1460048201526001600160a01b03831660248201819052610bb860448301529190602081606481730227628f3f023bb0b980b67d528571c95c6dac1c5afa90811561057357859161058d575b506001600160a01b03161561057e576040516370a0823160e01b815233600482015292602084602481865afa93841561057357859461053b575b5060405163095ea7b360e01b8152733fc91a3afd70395cd496c647d5a6cc9d4b2b7fad60048201523460248201526020816044818973fff9976782d46cc05630d1f6ebab18b2324d6b145af18015610530576104f8575b50604051600b60f81b60208201526021810186905260028152916101f56022846106c3565b6060926040519261020685856106c3565b60028452601f198501885b8181106104e857505060408051733fc91a3afd70395cd496c647d5a6cc9d4b2b7fad602082015234818301529081526102eb916102ff916102536060826106c3565b61025c8761071a565b526102668661071a565b506040517ffff9976782d46cc05630d1f6ebab18b2324d6b14000000000000000000000000602082015261017760eb1b603482015290871b6bffffffffffffffffffffffff19166037820152602b81526102c1604b826106c3565b6040519283913360208401523460408401526024358984015260a0608084015260c083019061074d565b8a60a083015203601f1981018352826106c3565b6103088461073d565b526103128361073d565b50733fc91a3afd70395cd496c647d5a6cc9d4b2b7fad3b156104e45792869192610354604051958693630d64d59360e21b85526004850152606484019061074d565b93600319838603016024840152815180865260208601956020808360051b83010194019686915b8383106104b15750505050829394506044830152038134733fc91a3afd70395cd496c647d5a6cc9d4b2b7fad5af180156104925761049d575b506040516370a0823160e01b815233600482015291602083602481855afa928315610492578493610459575b50820391821161044557602092506040518281527f2e7f8a64aa3240292c0adfa332e1e8945dd31589fcb0bce2721fa21c69b1390f843392a360017f09acf4e54214992e70883cf7dcd6957ff2c71cd9e14df4bec4383bc0d11607dc55604051908152f35b634e487b7160e01b83526011600452602483fd5b9092506020813d60201161048a575b81610475602093836106c3565b81010312610485575191386103e0565b600080fd5b3d9150610468565b6040513d86823e3d90fd5b836104aa919492946106c3565b91386103b4565b929550929550926020806104d1600193601f198682030187528a5161074d565b9801930193018a9592969388959261037b565b8680fd5b8087602080938901015201610211565b6020813d602011610528575b81610511602093836106c3565b81010312610524575180151581146101d0575b8580fd5b3d9150610504565b6040513d88823e3d90fd5b9093506020813d60201161056b575b81610557602093836106c3565b8101031261056757519238610179565b8480fd5b3d915061054a565b6040513d87823e3d90fd5b63162c895f60e21b8452600484fd5b6105af915060203d6020116105b5575b6105a781836106c3565b8101906106fb565b3861013f565b503d61059d565b63323940cd60e21b8252600482fd5b635db5c7cd60e11b8252600482fd5b6306d39fcd60e41b8252600482fd5b80fd5b9050346106a95760203660031901126106a9576106076106ad565b630b4c774160e11b825273fff9976782d46cc05630d1f6ebab18b2324d6b1460048301526001600160a01b03166024820152610bb86044820152602081606481730227628f3f023bb0b980b67d528571c95c6dac1c5afa90811561069e5760209291610681575b506040516001600160a01b039091168152f35b6106989150823d84116105b5576105a781836106c3565b3861066e565b6040513d84823e3d90fd5b5080fd5b600435906001600160a01b038216820361048557565b90601f8019910116810190811067ffffffffffffffff8211176106e557604052565b634e487b7160e01b600052604160045260246000fd5b9081602091031261048557516001600160a01b03811681036104855790565b8051156107275760200190565b634e487b7160e01b600052603260045260246000fd5b8051600110156107275760400190565b919082519283825260005b848110610779575050826000602080949584010152601f8019910116010190565b8060208092840101518282860101520161075856fea2646970667358221220ec13f2d408a5449b89b81d46164b8168fe2f323ee1a311151f8265b7214b3f0f64736f6c634300081a0033",
  "devdoc": {
    "author": "codewarriorr@pm.me",
    "kind": "dev",
    "methods": {
      "checkPool(address)": {
        "params": {
          "token": "address of the token to check pool for"
        }
      },
      "swapEtherToToken(address,uint256)": {
        "params": {
          "minAmount": "minimum amount of tokens to receive",
          "token": "token to swap to"
        }
      }
    },
    "title": "SwapperFacet",
    "version": 1
  },
  "userdoc": {
    "kind": "user",
    "methods": {
      "checkPool(address)": {
        "notice": "Check if a pool exists for the given token"
      },
      "swapEtherToToken(address,uint256)": {
        "notice": "Swap Ether to ERC-20 token through Uniswap V3 using Universal Router "
      }
    },
    "notice": "Swap Ether to ERC-20 tokens using Uniswap V3 through Universal Router",
    "version": 1
  },
  "storageLayout": {
    "storage": [],
    "types": null
  }
}